:400000000080002011000000811600008116000008B5044B1A6803F53F5302331A6001F04FFB00BFFA46004010B5054C237833B9044B13B10448AFF300800123237010BDFE
:400040007882FF1F00000000E0340000084B10B51BB108490848AFF300800848036803B910BD074B002BFBD0BDE81040184700BF000000007C82FF1FE0340000C880FF1F78
:400080000000000008B502F0C7F902F079F920B10146044800F06AFE08BD0121022001F0D7FD08BDB48CFF1F08B5002001F02AFD08BD00BF08B562B6124802F09FF902F09C
:4000C00051F900F05FFB642000F09CFA0E4800F035FE0E4800F03CFE0D4801F09FF80323022264210B4801F009F945F6BF520A4B1A600A4A136843F002031360002001F0D1
:40010000F1FFFBE785000000E4340000B48CFF1FCC83FF1FA48CFF1F14E000E010E000E008B502F0DFF8074A136843F005031360022001F035FB032001F032FB02F018F80D
:4001400008BD00BF10E000E000BFFDE730B5A5B0022001F0FDFD23A9032001F059FD239B13F0020F44D08022002103A802F0D5FC0DF10A01204801F0FDF8002838D1BDF8B7
:400180000A201E4903A802F08BFD03A802F00AF9082002F0A7FC0446BDF80A200146164801F0FEF8164802F0FDF8A288154903A802F076FD03A802F0F5F82168C1B10A7992
:4001C0004B798879C979019100900F4903A802F067FD03A802F0E6F82068C3798279417900791F25009500F099FB204601F012F9239801F0DFFCABE7A48CFF1FF4340000C2
:400200001C350000303500003C3500002DE9F0419EB0012001F09CFD1DA9022001F0F8FC1D9B13F0010F00F00281834801F00AF8824BDD7900240BE00DF10B017F4800F09B
:40024000BFFD9DF80B107C4801F010F80134A4B2AC42F1D37A4802F0A5F87A4C204602F0A1F8794802F09EF8204602F047FDA4F10C058023009304F1C80302462146284672
:4002800000F0ACFE284601F02FF809A9284601F003F86E4802F086F8C2E09DF82430042B40F0BE800A9B0B9CE41A0833624D59192246043103A802F029FD1EAB1C44002372
:4002C00004F86C3C03AA624915A802F0E9FC15A802F068F80DA9284600F0DEFF18B15D4802F060F89CE05C4903A802F0FDFC002846D19DF83430042B40F09280082002F03C
:40030000F1FB044610B1002303604360082002F0E9FB064610B1002323606360304601F06FF80E9B0F9DED1A681C02F0DBFB606030B9204600F064FF484802F033F86FE055
:400340000E9B03F108013C4B19442A46043102F0DDFC626800235355237022460821304601F054F8082231463D4800F0E1FF62683C4915A802F094FC15A802F013F84FE0AA
:40038000394903A802F0B0FC002849D19DF83430022B45D1082002F0A5FB8046082002F0A1FB074601F02CF8109A304915A802F077FC15A801F0F6FF00252EE01E4E11A91B
:4003C000304600F069FF129B139CE41A083399192246043106A802F099FC1EAB1C44002304F8603C06A802F04DFB044608EB0503187142460421384601F008F808223946B7
:40040000174800F095FF23462A46194915A802F047FC15A801F0C6FF0135109B9D42CDDB09A9054800F038FF00283FF436AF1D9801F0C0FBEDE600BFCC83FF1FB48CFF1FAD
:4004400070350000D883FF1F6C35000080350000A0350000B0350000CC350000D0350000A48CFF1FF83500000C360000103600002C36000010B50446013001F093FF0648D2
:4004800001F090FF04F1110001F08CFF034801F089FF002010BD00BF54360000F435000038B5134B988908B319461C89631C9BB2104AA2FB03525209642505FB12330B811F
:4004C0000138888101EB44018B7B13B1012B04D006E0002002F026F802E0012002F022F8034B03EB4404E07B01F0D0FF38BD00BF9482FF1F1F85EB5130B5ABB01B4B9B8969
:40050000632B17D92AAD032305F8A83D184B1868CDF80100174C0FCCCDF81100CDF81510CDF81920CDF81D302846FFF7A3FF6FF0070019E00D4D6C89621C92B205EB4404F9
:40054000A073E1730C49A1FB02014909642000FB11226A8101339BB2AB81012B03D1FFF79FFF002000E000202BB030BD9482FF1FB03B0000B43B00001F85EB512DE9F041D3
:4005800080460E4617461D462A210020FFF7B4FF00210120FFF7B0FF194C94F8D6104144C9B20120FFF7A8FF00210120FFF7A4FF94F8D6103944C9B20120FFF79DFF2B218D
:4005C0000020FFF799FF00210120FFF795FF94F8D7103144C9B20120FFF78EFF00210120FFF78AFF94F8D7102944C9B20120FFF783FF2C210020FFF77FFFBDE8F08100BF0F
:400600009482FF1F08B5642800D9642001F0BCFF08BD00BF10B5044636210020FFF76CFF04F003002A4B83F8D80003284ED8DFE800F00215283BC2210120FFF75DFF244BC3
:40064000A022A3F8DA208022DA8093F8DC2083F8D62093F8DD2083F8D72010BDA2210120FFF74AFF1A4BA022DA808022A3F8DA2093F8DC2083F8D72093F8DD2083F8D6209B
:4006800010BD08210120FFF737FF114BA022A3F8DA208022DA8093F8DC2083F8D62093F8DD2083F8D72010BD62210120FFF724FF074BA022DA808022A3F8DA2093F8DC20A0
:4006C00083F8D72093F8DD2083F8D62010BD00BF9482FF1F2DE9F0411F46BDF818501F4BB3F90630834236DD90461C4AB2F8DA20914230DA00EB0804013C9C4202DB1B1A01
:400700000FFA83F87B18013B9A4201DC571A3FB2C0B2C9B2CB19013B00EB0802013ADBB2D2B2FFF72BFF2E0AEDB2012001F0FAFE0FE031460220FFF7DFFE29460220FFF71A
:40074000DBFE013C24B200E04446002CF1DC013F3FB2002FF8DCBDE8F08100BF9482FF1F00B583B0064AB2F9DA30B2F90620009000210846FFF7AEFF03B05DF804FB00BFC7
:400780009482FF1FF8B5364B8022DA80A022A3F8DA20002483F8D840A3F8DE40A3F8E04001251D714FF6FF72A3F8E220A3F8E4405D711C6083F8DD4083F8DC4083F8D64089
:4007C00083F8D7401C815C819C8101F09DFE284601F0B4FE642000F0CDFF204601F0AEFE642000F0C7FF284601F0A8FE142000F0C1FF29462046FFF77FFE322000F0BAFF8A
:4008000011212046FFF778FE782000F0B3FF0F22144D14E02C4614F8021B0020FFF76CFE6A78254606E06E1C29780120FFF764FE22463546531EDCB2002AF4D13A46531E40
:40084000DFB2002AE6D10220FFF7E4FE0020FFF787FF01F0DFFE642001F096FEF8BD00BF9482FF1F59360000002821DB114BB3F9063098421CDA00291ADB0E4BB3F8DA3004
:40088000994215DA10B51446C0B2C9B24B1C421CDBB2D2B2FFF772FE012001F043FE210A0220FFF729FEE1B20220FFF725FE10BD704700BF9482FF1FF8B51E46164BB3F906
:4008C0000630834226DD1546134BB3F8DA30994220DA0A44013A934201DC5D1A2DB2C0B2C9B24B19013BDBB20246FFF747FE370AF6B2012001F016FE08E039460220FFF7FB
:40090000FBFD31460220FFF7F7FD25466A1E14B2002DF2D1F8BD00BF9482FF1F2DE9F04F83B005460E461746BDF830200092C1EB0308B8F1000FB8BFC8F10008C0EB07096E
:40094000B9F1000FB8BFC9F10009C84504DD3A461F4613460D460646BD4205DD32461E4613462A463D461746C5EB070B1FFA8BFB0FFA8BF4C6EB030ABAF1000FB8BFCAF1C0
:40098000000A04EBD47464109E4202DA012301931EE04FF0FF3301931AE0C84505DD009A29463046FFF760FF04E0009A31462846FFF75AFFCAEB0404A3B21CB2002C05DAB1
:4009C000019A164436B20BEB030424B201352DB2BD42E2DD03B0BDE8F08F00BF2DE9F04F8BB00290039115460493BDF850709DF854A07F4B1A68002A40F09080B3F90630A0
:400A00000146834240F3F180794BB3F8DA300398984280F2EA800AEB4A0253000B44012B00F1E38000EBCA03012B00F1DE804FF00008894683460595049E4EE0059B03EBCF
:400A4000830343446B4A134493F8585000243EE015F0010F1BD0BAF1010F09D104EB0B0108EB0900324609B200B2FFF7FDFE2BE01FFA8AF00FFA8AF204FB00B108FB009020
:400A80000096134609B200B2FFF724FE1CE0BE421AD0BAF1010F09D104EB0B0108EB09003A4609B200B2FFF7DFFE0DE01FFA8AF00FFA8AF204FB00B108FB00900097134658
:400AC00009B200B2FFF706FE013464B26D08072CBEDD08F101084FFA88F8B8F1040FADDD049BBB4200F08180BAF1010F08D1029805303B460822039900B2FFF7DDFE74E0E2
:400B00001FFA8AF303EB8300029A10440097DB005246039900B2FFF7DDFD66E0137AEB1ADBB2506800EBC301D2F800B030F8337091F80280CB78079391F90530089391F9B9
:400B400006200992BAF1010F04D91BB2059313B2069302E000230693059300231C46994640E05E1CF6B213F0070F03D17B1C1BF807409FB214F0800F27D0BAF1010F0DD12B
:400B8000099B039A99184944089B029A98182844049A09B200B2FFF767FE16E0059B58191FFA8AF3069A02EB09010FFA8AFE039A01FB0321029A00FB0320049B00937246CF
:400BC000734609B200B2FFF785FD6400E4B20135EDB2334600E000254545C2D309F101095FFA89F9079A9145F5D30BB0BDE8F08F9482FF1F5836000070B582B04E4B1B68B9
:400C0000002B43D10A280BD14B4B0022A3F8DE201979B3F8E02002EBC102A3F8E02088E00D2800F08680444B5B79ABB1424A117901EB41046300B2F8DE402344B2F9062092
:400C4000934209DD3C4B0022A3F8DE20B3F8E02002EBC101A3F8E010374CB4F8E230B4F9E010B4F9DE5022790192B4F8E420009202462846FFF7B2FE237903EB43035A00E3
:400C8000B4F8DE301344A4F8DE3052E00A280CD1294A0021A2F8DE10997A1079B2F8E03000FB0133A2F8E03043E00D2841D01A7A90423ED3597A88423BD8821A5C6804EB0E
:400CC000C204A278E1785AB351B394F905501A494979A9B118490E792A44B1F8DE5002FB0652B1F906108A420ADD134A0021A2F8DE109B7AB2F8E01006FB0316A2F8E060AB
:400D00000D4AB2F8E230B2F9E010B2F9DE5016790196B2F8E420009202462846FFF75EFE2179054B1879B3F8DE2000FB0122A3F8DE2002B070BD00BF9482FF1F10B5044602
:400D400002E00134FFF758FF20780028F9D110BD38B50446FF20207100256571A571E57101F0C0FE2060284638BD00BFF8B138B504460368F3B1C27903799A421DD20D4655
:400D8000002001F077F82268A379591CA171D5542379A179B1FBF3F203FB1213A371E3790133E371002001F00BFA002038BD4FF0FF3070474FF0FF3038BD6FF0190038BDDB
:400DC000F0B138B504460368EBB1C379F3B10D46002001F04FF822686379591C6171D35C2B7023796179B1FBF3F203FB12136371E379013BE371002001F0E2F9002038BD27
:400E00004FF0FF3070474FF0FF3038BD6FF0190038BD00BF436893420AD25A1C426001EB03104FF0FF33836043600023C3607047002070470170426083600023C3607047CD
:400E400070B506681DE0202C21D006D8092C0ED30A2C1CD90D2C0AD119E03A2C17D002D82C2C04D113E05D2C11D07D2C0FD0203CE4B25E2C03D906606FF0010070BD0135BF
:400E800005600568954202D24C5D002CDBD11BB9013D0560002070BD19460446049AFFF7B9FF18B926604FF0FF3070BD236832460821FFF7BFFF2368013B2360002070BD12
:400EC000F8B50668741C04607AE0222D13D1002B00F0818019460446069AFFF79BFF18B926604FF0FF30F8BD2368721C0421FFF7A1FF0020F8BD5C2D5FD10134A2425CD937
:400F000004600D5D223D532D53D8DFE805F0565252525252525252525252525652525252525252525252525252525252525252525252525252525252525252525252525211
:400F40005252525252525252565252525252565252525652525252525252565252525652562A013404604FF0000E15E0A5F13007FFB2092F0CD9A5F14107FFB2052F07D984
:400F8000613DEDB2052D03D906606FF00100F8BD013404600EF1010EBEF1030F05DC0468A24202D90D5D002DE0D10468013C046003E006606FF00100F8BD0468013404603F
:400FC0000468944203D20D5D002D7FF47EAF06606FF00200F8BD0020F8BD00BF2DE9F04782B00646884617461D46DDF828A0D0F80490D1E02C2C00F092800ED80D2C00F027
:40100000C88004D8093C012C40F2C380ABE0202C00F0BF80222C66D0A5E05D2C2DD004D83A2C78D05B2C05D09DE07B2C02D07D2C23D098E009F10109002D00F0AA8052463D
:4010400029463046FFF7E6FE0146002800F0BF80B368B3F1FF3F04D005EB0313DA680132DA607B2C01D1012300E002230B7033684B607368013BB3608BE0002D00F089806F
:401080007D2C01D1012400E002247368013B14E005EB03125068B0F1FF3F0DD09068B0F1FF3F09D11078844240F094804FF0FF30B0600131916002E0013B002BE8DAB3F173
:4010C000FF3F0DD189E005EB03125168B1F1FF3F05D09268B2F1FF3F01D1B36059E0013B002BF0DA55E0CDF800A02B463A4641463046FFF7E5FE002876DB09F10109B368D5
:40110000B3F1FF3F45D0002D43D005EB0313DA680132DA603DE07368013BB36039E0002D37D0B368B3F1FF3F33D01B01EB5C022B2FD0012B2DD07268013A11E01301E9185C
:40114000EB5C013BDBB2012B09D84B68B3F1FF3F05D08B68B3F1FF3F01D1B26019E0013A002AEBDA15E0CDF800A02B463A4641463046FFF765FE002836DB09F10109B36813
:40118000B3F1FF3F05D025B105EB0313DA680132DA603368013333603168B94204D218F80140002C7FF426AFD5B17368013B0AE005EB03125168B1F1FF3F03D09268B2F1C7
:4011C000FF3F0FD0013B002BF2DA48460CE04FF0FF3009E06FF0010006E06FF0010003E0484601E06FF0020002B0BDE8F08700BF0023036043604FF0FF338360704700BFF5
:4012000050B110B50446406808B101F073FC204601F070FC002010BD0020704778B110B50446FFF7E5FFC822002104F10C0001F074FC0020A4F8D408A4F8D60810BD4FF0B9
:40124000FF30704778B110B50446FFF7D1FFC822002104F10C0001F060FC0020A4F8D408A4F8D60810BD4FF0FF307047034668B1B0F8D428C62A0CD8501C80B2A3F8D4083E
:401280001A44117303440020187370474FF0FF3070476FF007007047C0B110B40C46C1B1B0F8D6287F2A17D802F10D0100EB01110979A1B1511CA0F8D6180D3200EB021326
:4012C00004330FCB84E80F0000200AE04FF0FF3070474FF0FF3004E06FF01A0001E06FF01B0010BC704700BF034618B10020A3F8D60870474FF0FF30704700BF10B5044676
:4013000000214170817064202070E170E360A2604FF4487001F0E6FB606028B9034801F041F86FF0030010BD002010BDC43B0000C27803789A421AD210B503464268807815
:40134000441C9C7002EBC00203C982E803001A789878B0FBF2F102FB11029A70DA780132DA709968D86800F073FC002010BD6FF019007047C37873B110B444780378B4FB3B
:40138000F3F203FB1243DBB2426802EBC3039B880B80002002E06FF01900704710BC704738B5C37843B30D4604464368427803EBC20393E8030085E803006368627853F8F8
:4013C00032306BB1082001F08DFB0346286038B16268617852F8312092E8030083E8030063780133217893FBF1F201FB12336370E378013BE37038BD6FF0190038BD00BFB3
:401400000023036001238380704700BF026081800020704748B110B50446006808B101F069FB204601F066FB10BD7047FEE700BFF0B40022174611E050F82760F3B226F053
:40144000FF0608E001EB420511F812406D78A5550132013BDBB2002BF4D101371A2FEBD9F0BC7047064B1B78DBB203F00701054A11701B09013213704422034B1A70704773
:40148000CF0100496E5800407658004008B50A46002101F042FB08BD38B50024284B1C80582202331A70192502331D801823254A137041F2BF210232118002321370022295
:4014C000214B1A7008224FF040231A70032103F5007319701D4B1B78DBB21D490B701D4B1A8041F25122023B1A800CE01A4B1B7803F0010343EA440404F003044FF4F070B2
:4015000001F0A6F8013D0DB1032CEFD115B90320FFF78CFF114B4FF480721A8007221A7000220F490A704820023108701A700222033B1A700B4A137843F00703137038BDCF
:4015400080400040864000400043004008010049A146004022420040254200400440004006400040A243004008B501F0CBFA08BD38B572B6334A137843F0040313700024B9
:401580000CE0314D630019194A0011462A44084691882858FFF77AFF0134E4B20B2CF0D900240CE02848A20011194B000344B3F85020D96C986CFFF7D7FF0134E4B2022CF5
:4015C000F0D922494FF09040FFF732FF204A137843F0020313701032137843F0020313701C4C237843F040032370A2F58632513A137843F0100313700A2217491748FFF72E
:40160000B3FF082216491748FFF7AEFF082216491648FFF7A9FF164A137843F008031370144D61232B70FFF737FF81232B700122114B1A70FFF716FF0E2221460F48FFF759
:4016400093FF38BDE8460040F83B00006C00004803500140A043004058050048C051004064050048125100406C05004832510040224300400048004004000840B043004065
:4016800008B501F003FA03680C2B00D1FEE7FEE708B5094B1A681044084BC31AB3F5006F02DC054B186005E001F0F0F90C2303604FF0FF32104608BDCC80FF1F10CFFF1F2B
:4016C00008B5104E104D16E029686B68AC68002204E051F8040B43F8040B0432A242F8D1E868002203E0002143F8041B04328242F9D11035013E002EE6D101F0CDF9FEF7D0
:40170000D9FCFEE7010000003C40000008B5104A104B1A60104A136843F40073136000230AE0032B03D80D4A52F8231000E00C490C4A42F8231001332F2BF2D90A4B1A7872
:401740000A4B1A70074A0A4B1A60FFF711FF08BD0004FA050CED00E014ED00E000000000811600000080FF1FBC760040C080FF1F08ED00E010B5044605E0084B186800F051
:4017800067FFA4F50044B4F5004FF6D8034B586800FB04F000F05CFF10BD00BFD080FF1F38B5EFF3108572B603284ED82D4B53F82030002B4BD02B4A013B42F820302A4BF8
:4017C00053F82030032B07D10222274B43F820200022264B43F8202000F006FC244B1B68002B36D1234B1C6800F0DCFBB0F1FF3F31D0214B53F82020204B1B689A422CD9B4
:40180000B4F1FF3F03D00221174A42F824101C4A52F820201343194A13600022124B43F8202000F07BFB174B53F820304BB10024144B43F8204040F0004000F057FF204651
:401840000CE000F053FF002008E0032006E0042004E0002002E0002000E0002085F3108838BD00BF3081FF1FD481FF1FA083FF1FC08CFF1FC081FF1FE03C0000B883FF1F7A
:40188000C43C00008083FF1F18B108B5C368984708BD704708B508B1406800E00020032816D80C4B53F8203093B10A4A013B42F82030094B53F82030032B07D10222064B0A
:4018C00043F820200022054B43F8202000F08CFB08BD00BF3081FF1FD481FF1FA083FF1F18B1034640689B6801E00023184603281DD80F4A52F82020CAB10E4A52F8201093
:40190000032914D010B50C4C54F820201A4344F820200A4A52F82020134207D0012905D10222044B43F8202000F05EFB10BD7047A43C0000D481FF1FA083FF1F9083FF1F8B
:4019400080B108B50378012B06D013B1032B06D008BDFFF79FFF08BDFFF7C2FF08BDFFF793FF08BD704700BF30B400EB40029300214AD258214B03EBC2035C68B4F1FF3FD8
:4019800004D11E4B03EBC20250602DE01C4B03EB04139B6899420AD2184D05EBC2025060174A02EB04125B1A93601DE01C46144B03EB04139A68891ADB68B3F1FF3F05D05D
:4019C0000F4A02EB031292689142EFD2B3F1FF3F05D00B4A02EB031295686D1A9560084A02EB0414E0601C46054B03EB00108160C46030BC704700BF803C0000E480FF1F8B
:401A0000E8ACFF1F38B5394A02EBC0035C6852F83030013342F8303000EB40018A0034498A58934203D90022304B43F83020B4F1FF3F59D02F4B03EB04139B68002B4ED1D2
:401A4000214600E019462B4B03EB0113DB68B3F1FF3F05D0274A02EB03129268002AF1D0244A02EB01114FF0FF32CA601F4A02EBC0004360B3F1FF3F07D01E4A02EB031312
:401A80009A68013A9A6000E02C4604EB44029300194A13441B7A7BB904EB44029300164A13445A68154B53F8223003EB83039A0013481044FFF744FF0E4B03EB0413DD687B
:401AC000596821B101392046FFF74EFF03E024010022084B1A51B5F1FF3FD5D138BD054A02EB0414013BA36038BD00BFE480FF1F943C0000E8ACFF1F803C0000903C000036
:401B00006C3C000038B5EFF3108572B6002838D1FFF778FF204B1B68002B34D11F4B1C6800F040FAB0F1FF3F2FD01D4B53F820201C4B1B689A422AD9B4F1FF3F03D002212A
:401B4000194A42F82410194A52F820201343154A13600022144B43F8202000F0DFF9144B53F820304BB10024114B43F8204040F0004000F0BBFD20460AE000F0B7FD00207E
:401B800006E0032004E0002002E0002000E0002085F3108838BD00BFC08CFF1FC081FF1FE03C0000B883FF1FD481FF1FC43C00008083FF1FEFF3108372B6114A1168114AB4
:401BC000126882B9B1F1FF3F0FD00F4A52F821206AB110B40D4C54F8212022EA000044F82100002007E0022002E0022000E0012083F31088704783F3108810BC704700BF1C
:401C0000C081FF1FC08CFF1FA43C0000A083FF1F03280FD80B4B53F820306BB10A4B53F82030032B0AD059B1084B53F820300B6000207047032070470120704707207047D9
:401C40000E207047A43C0000D481FF1FA083FF1F38B5EFF3108472B6032853D8324B53F82030002B50D0314B53F82030032B4DD02F4D55F820200A4345F820202D4A52F8B1
:401C80002020114244D0012B44D10222274B43F8202000F0A9F9284B1B68002B3CD1274B1D6800F07FF9B0F1FF3F37D0244B53F82020244B1B689A4232D9B5F1FF3F03D09C
:401CC00002211A4A42F825101F4A52F8202013431C4A13600022154B43F8202000F01EF91A4B53F820304BB10025184B43F8205040F0004000F0FAFC284612E000F0F6FC01
:401D000000200EE003200CE001200AE0072008E0002006E0002004E0002002E0002000E0002084F3108838BDA43C0000D481FF1FA083FF1F9083FF1FC08CFF1FC081FF1FAE
:401D4000E03C0000B883FF1FC43C00008083FF1F38B5EFF3108472B63A4B1D683A4B1B68002B63D1B5F1FF3F62D0384B53F82530B3F1FF3F5ED1364B53F82530002B5BD010
:401D8000344B53F82530034258D1334B43F825000122324B43F82520314B53F8250031490B6823EA00030B602F4B43F825202F4B53F82520234B1A6000F0F4F8B0F1FF3F9D
:401DC00006D02B4B53F82020264B1B689A420DD81C4B1868B0F1FF3F03D000221F4B43F8202040F0004000F081FC1AE000211B4A42F820101A4A52F820201343194A1360D6
:401E000000F08CF8184B53F8203043B10022164B43F8202040F0004000F068FC01E000F065FC00200C4B43F8250008E0022006E0022004E0062002E0012000E0002084F3DB
:401E4000108838BDC081FF1FC08CFF1FF080FF1FA43C0000A083FF1F9083FF1FD481FF1FC43C0000B883FF1F8083FF1FC481FF1FE03C0000204B1A68204B1968EFF3108372
:401E800072B648BB30B41E4C54F8204044BB51B9B2F1FF3F26D01B4C54F822501A4C54F82040A54220D809BB184951F82250184C44F8205041F822000121114A42F82010D5
:401EC00014490C68144A42F820400F4A52F8202022430A6000200AE0032083F310887047012004E0012002E0012000E0012083F3108830BC704700BFC081FF1FC08CFF1F12
:401F00007C83FF1FE03C0000A03C0000F080FF1FEC80FF1FB883FF1FF8ACFF1FF0B4184B19880B0A174AD356B3F1FF3F01D1535601E008335BB2144D55F82320134850F8F8
:401F40002200134E56F8224045F82340114D2F6846F822702A60B4F1FF3F09D10E4A42F82340012202FA03F321EA0301044B19800A4B19680A4A42F820101860F0BC704712
:401F8000B483FF1F803D00008081FF1FC8ACFF1F1081FF1FB083FF1F4081FF1FC081FF1FC481FF1F0C4B1A88130A0C49CB56B3F1FF3F01D18B5601E008335BB2B3F1FF3F91
:401FC00006D0074A52F82320064B53F8220070474FF0FF30704700BFB483FF1F803D00008081FF1FC8ACFF1F30B4144B53F82020134C2368134951F823502560124C44F822
:4020000023004FF0FF3441F82340104951F82210A1420AD10E4951F820400E480188214301800D4941F8223002E0064840F82130064941F8223030BC704700BF2081FF1F84
:40204000B083FF1F1081FF1FC8ACFF1F4081FF1FE03C0000B483FF1F8081FF1F10B150F8210070474FF0FF30704700BF0122014B1A60FEE7BC8CFF1F70B50546124B53F84E
:40208000306000241CE0104B03EBC50321465868FFF7E4FF0D4A52F82030013B42F820300B4B53F82030032B07D10222084B43F820200022074B43F82020FFF795FF013411
:4020C000B442E0D370BD00BF603C00003081FF1FD481FF1FA083FF1F18B908B5FFF7CCFF08BD7047194B1A4ADA621A4A9A631A4ADA63EFF3108272B6184B1B6813BB10B546
:40210000044600F0EFF8164B1C600122134B1A602046FFF7E1FFFFF745FFB0F1FF3F0ED0104B53F82030104A11680B43136000220E4B43F82020FFF7F1FE00F0D7FA62B635
:40214000FFF794FF82F31088072070470080FF1FD126000095260000A9000000BC8CFF1FFCACFF1FC43C0000B883FF1FD481FF1F08B5EFF3108272B60D4B19680D4B1B68ED
:4021800063B90D4B53F82130B3F1FF3F08D14FF0FF300A4B43F82100002002E0022000E0062010B9084600F0FAFA82F3108808BDC081FF1FC08CFF1FF080FF1F0081FF1F48
:4021C00070B53C4B1A683C4B1B68EFF3108572B600285BD1394951F82010002958D0384951F82210884255D153B9B2F1FF3F53D0344C54F82260344C54F82040A6424DD8E5
:40220000002B4DD1314C54F821402D4941F8224000212A4A42F820102D4A52F820102D4A1160002B3ED1234B1C68FFF7BBFEB0F1FF3F39D0234B53F82020264B1B689A42B6
:4022400034D9B4F1FF3F03D00221234A42F82410224A52F8202013431E4A136000221E4B43F82020FFF75AFE1D4B53F820304BB100241B4B43F8204040F0004000F036FA6E
:40228000204614E000F032FA002010E003200EE005200CE005200AE0012008E0012006E0012004E0002002E0002000E0002085F3108870BDC081FF1FC08CFF1F7C83FF1F0D
:4022C000F080FF1FE03C0000A03C0000EC80FF1FF8ACFF1FB883FF1FD481FF1FC43C00008083FF1F10B5EFF3108472B600F0C0F9034A136843F07F43136084F3108810BD07
:4023000020ED00E07222084B1A702022013B1A700622A3F5AF731A70472210331A70002203F5A8731A7070478A65004010B500F097F904460A4A137843F020031370013A6E
:40234000137843F0100313700232137843F01003137000F067F8204600F086F910BD00BF9A65004008B5054B1B7823B9FFF7CAFF0122024B1A70FFF7D9FF08BDC083FF1F69
:40238000014B1878704700BF49650040034B1B7813F0040FFAD1024B187070476B6500404865004038B5074B1B782BB938BDFFF7EDFF0134A4B201E005460024285D00287D
:4023C000F5D138BDC083FF1F014B1B681864704708ED00E04001C0B2014B1870704700BF00E400E00122014B1A60704700E100E00122014B1A60704780E100E010B50446D8
:40240000FFF7F6FF2046FFF7DFFF0720FFF7E2FFFFF7E8FF10BD00BF0122014B1A60704780E200E0054A137843F0020313701032137843F002031370704700BFA243004076
:4024400008B500F00DF90A4A137843F0200313700132137843F0100313700132137843F01003137000F000F900F0E2F808BD00BF99640040014B1878704700BF6A6400400F
:40248000014B1878704700BF6B640040034B1B7813F0040FFAD0024B187070476A6400404964004008B501E00A4B1B780A4B1B7813F0200FF8D100F0D3F8084B1A7842F038
:4024C00001021A701A7802F0FE021A7000F0CCF808BD00BF596400406B6400409964004008B50F22064B1A70FFF7DCFFFFF7C2FFFFF7C6FF0023034A13700132137008BD46
:40250000896400408A64004008B5054B1B7823B9FFF7E6FF0122024B1A70FFF791FF08BDC283FF1F044A137803F0F703C00000F00800184310707047C0510040044A137807
:4025400003F0EF03000100F0100018431070704730510040084A137843F0010313701032137843F00103137002F64D32137843F001031370704700BFA3430040014B1880C8
:40258000704700BF044F0040014B1880704700BF064F0040014B1870704700BF034F004008B5194A137843F0020313700232137803F08F0343F010031370144B1A7802F0F1
:4025C000CF021A701A7842F030021A701A7802F0F0021A701A7842F00F021A706420FFF7CDFF0020FFF7D0FF0020FFF7D3FF084A137843F00103137002F65E32137843F0B1
:402600000103137008BD00BF004F00400B4F0040A343004008B5054B1B7823B9FFF7C0FF0122024B1A70FFF795FF08BDC383FF1F054A137843F0010313701032137843F0CE
:4026400001031370704700BFA2430040000000000230800803D000BF01380046FCD17047EFF3108072B6704780F31088704700BF18484FF47F0102680A43026016486FF01E
:402680007F4102680A400260704714484FF080510160704772B611484FF00061016000F0B1F80F48006800F02DF958B10C4800684FF080730B4A0C490FB40FB46FF006008D
:4026C000004700BF6FF0060062B6004762B600DF08B0704720ED00E01CED00E004ED00E0C48CFF1FED260000CD260000411C8900154A11440968154A136899421AD0F0B441
:4027000044464D4656465F46F0B400B5104C9B002344EFF308851D60116089002144096881F3088802BC8E46F0BCA046A946B246BB46F0BC002806DB00B500F0D7F802BCD1
:402740008E46FFF7D3BF7047103D0000BC83FF1F0482FF1FF0B444464D4656465F46F0B400B5EFF3038308B48000174901440968164A0244EFF3088313608847144880476B
:4027800004BC4FF08070024382F3038801BC8646F0BCA046A946B246BB46F0BC704780000A4901440A6882F3088804BC4FF08070024382F3038808BC9E46F0BCA046A94693
:4027C000B246BB46F0BC7047F03C0000D8ACFF1F6D28000008B5FFF7A1FB084B53F8203043B10022054B43F8202040F00040044B186008BD024B186008BD00BF8083FF1F96
:40280000C48CFF1F10B5FFF7CDFB124B1B68B0F1FF3F1AD0104A52F82010104A1268914213D9B3F1FF3F03D002240D4941F8234000210B4B43F820100A4B53F820301A439B
:40284000064B1A60FFF7C6FF10BD43F00043064A136010BDC081FF1FE03C0000B883FF1FD481FF1FC43C0000C48CFF1F10B572B6034B1C68204600F00DF82046FFF78FFF46
:40288000C081FF1F08B5024B1868FFF763FF08BDC081FF1F10B4104B53F820304FF0FF310BE00E4A52F823200B4941F8202000240B4941F8234019461346B3F1FF3FF0D17E
:4028C000B1F1FF3F04D0074B53F82120064B1A60084610BC704700BFF080FF1FEC80FF1F7C83FF1FF8ACFF1FB883FF1F08B562B6FFF7C8FF72B600F041F8014B186808BD27
:40290000C48CFF1F00280BDA20F000400130054B53F82000044B1B68181A18BF0120704701207047103D0000BC83FF1F054B53F82020054B53F820309A4201D1012070475F
:40294000002070473081FF1FB43C000008B5FFF7E5FA084B53F8203043B10022054B43F8202040F00040044B186008BD024B186008BD00BF8083FF1FC48CFF1F38B5364B1E
:402980001C680022354B1A60354A52F82430013342F82430334B53F824502046FFF7C6FF012801D0A54204D103222F4B43F8242003E002222C4B43F824202C4B53F8241073
:4029C0002B4A136823EA010313602A4B53F82440214B1C60B5F1FF3F0FD0234B53F82530032B07D10222204B43F825200022224B43F825202846FFF7F7FAFFF7D3FAB0F1A9
:402A0000FF3F0BD1B4F1FF3F03D00022164B43F8242044F00044194B1C6038BD184B53F82020134B1B689A4208D800220E4B43F8242044F00044114B1C6038BD00210A4A38
:402A400042F82010094A52F820201343084A1360FFF77CFF38BD00BFC081FF1F00CFFF1F3081FF1F0081FF1FD481FF1FC43C0000B883FF1FC481FF1FA083FF1FC48CFF1F37
:402A8000E03C00000A22002100F0DAB9014B1868704700BF7082FF1F0E4B70B51E460E4C0025E41AA410A54204D056F8253098470135F8E701F0B0FA084B094C1E46E41ACE
:402AC000A4100025A54204D056F8253098470135F8E770BD2440000024400000244000002C400000024B0146186800F06BB800BF7082FF1F024B0146186800F017B800BF5E
:402B00007082FF1F10B5431E0A44914204D011F8014B03F8014FF8E710BD03460244934202D003F8011BFAE77047000038B50546002944D051F8043C0C1F002BB8BFE41872
:402B400000F088F91E4A1368114613B96360146030E0A3420DD92268A018834201BF18685B681218226063600C6023E0A24203D813465A68002AF9D118681918A1420BD1A6
:402B80002168014458188242196013D110685268014419605A600DE002D90C232B6009E021686018824201BF106852680918216062605C602846BDE8384000F04CB938BD55
:402BC000C883FF1F70B5CD1C25F0030508350C2D38BF0C25002D064601DBA94202D90C23336046E000F036F9234B1C681A462146A1B10B685B1B0ED40B2B03D90B60CC184A
:402C0000CD501EE08C420BBF63684B681360636018BF0C4615E00C464968E9E7174C23681BB9304600F02CF820602946304600F027F8431C18D0C41C24F00304A0420DD17A
:402C40002560304600F007F904F10B00231D20F00700C31A0ED05A42E25070BD211A304600F00EF80130EBD10C233360304600F0F2F8002070BD00BFC883FF1FC483FF1FDC
:402C800038B5064C0023054608462360FEF700FD431C02D1236803B12B6038BD08CFFF1F0EB400B54FF402719CB0ADF814106FF00041049107914FF6FF711DAB029006900A
:402CC000084853F8042BADF81610006802A9019300F01CF9029B00221A701CB05DF804EB03B070477082FF1F10F8012B11F8013B012A28BF9A42F7D0D01A7047034613F89D
:402D0000012B002AFBD1181A01387047034610B542B111F8014B013A03F8014B002CF7D11A4400E010BD934202D003F8014BFAE710BD00002DE9F0470F4680463F48D0F825
:402D400000903D4615F8014B09EB0400407800F0080000F0FF0608B12F46F2E72D2C03D1BD1C7C78012603E02B2C04BF7C78BD1C13B1102B0AD15BE0302C57D1287800F02F
:402D8000DF0058284DD16C7810230235002E14BF4FF0004C6FF0004CBCFBF3FA0027384603FB1ACC09EB040E9EF801E01EF0040F01D0303C0BE01EF0030E1BD0BEF1010F55
:402DC0000CBF4FF0370E4FF0570ECEEB0404A34210DDB7F1FF3F0AD0504506D801D1644503DC03FB0040012701E04FF0FF3715F8014BD7E77B1C0CD1002E4FF0220314BF14
:402E00004FF000406FF00040C8F800302AB9BDE8F08706B1404272B107B1691E1160BDE8F0873024002BB1D10823AFE70A23ADE7302CA3D0AAE7BDE8F08700BF7482FF1F8B
:402E400013460A46014602480068FFF773BF00BF7082FF1F704770472DE9F0478E6882469E420C46914698463ED88A8912F4906F3AD02568096902236F1A656905EB45056C
:402E800095FBF3F57B1C43449D4238BF1D4653050FD52946FFF796FE064698B13A462169FFF730FEA38923F4906343F08003A38113E02A4600F0E3FA064670B92169504676
:402EC000FFF734FE0C23CAF80030A3894FF0FF3043F04003A381BDE8F08726613E44266046466561ED1BA560464528BF464649463246206800F0A8FAA36800209B1BA36048
:402F000023681E442660BDE8F08700002DE9F04F9DB003938B8980461C060D4616460DD50B695BB94021FFF74DFE2860286118B90C23C8F80030CDE040236B610023099377
:402F400020238DF82930DFF89CB130238DF82A3037463C4614F8013B1BB9B7EB060910D003E0252BF9D02746F3E74B46324629464046FFF771FF013000F0A780099B4B440C
:402F800009933B78002B00F0A08000234FF0FF3204930793059206938DF853301A930126052221784E4800F041FA671C049B38B14B4A3C46801A06FA00F018430490EFE7C5
:402FC000D90644BF20228DF853201A0744BF2B228DF8532022782A2A03D0079A00210A200BE0039A111D12680391002A10DA524243F00200079204900BE027463B78013491
:40300000303B092B03D800FB02320121F5E701B107923B782E2B1ED17B782A2B0AD1039B02371A1D1B680392002BB8BF4FF0FF33059310E0002319460593781C0A24074696
:403040003A780130303A092A03D804FB01210123F5E703B1059103223978224800F0E6F940B14023CBEB000003FA00F0049B013718430490397806221B487E1C8DF828102B
:4030800000F0D4F988B1194B33B9039B073323F007030833039314E003AB00932A46144B04A94046AFF3008007E003AB00932A460F4B04A9404600F093F8B0F1FF3F824664
:4030C00003D0099B5344099342E7AB895B0601D4099801E04FF0FF301DB0BDE8F08F00BFE43F0000EA3F0000EE3F000000000000592E00002DE9F04791461F460A698B6804
:4031000006469342B8BF1346C9F8003091F843200C46DDF8208012B10133C9F800302368990642BFD9F800300233C9F80030256815F0060510D104F1190A07E00123524687
:4031400039463046C04701301AD00135E368D9F800209B1A9D42F1DB94F843302268003318BF012392060FD5E118302081F843005A1C94F845102244023382F8431003E08C
:403180004FF0FF30BDE8F08704F1430239463046C0470130F4D02268D9F80050E36802F00602042A08BF5D1B2269A3680CBF25EAE57500259342C4BF9B1AED184FF00009B4
:4031C0001A344D4509D00123224639463046C0470130D5D009F10109F3E70020BDE8F0872DE9F04317460A7E85B06E2A984606460C460C9B01F1430E00F0AE8011D8632AA9
:4032000022D009D8002A00F0BB80582A40F0CA8081F84520834955E0642A1ED0692A1CD0C0E0732A00F0B08009D86F2A2ED0702A40F0B8800A6842F020020A603EE0752ACC
:4032400024D0782A3AD0ADE01A6801F14205111D1960136884F84230A8E021681A6811F0800F02D0111D196008E011F0400F02F10401196002D0B2F9003000E01368002BDE
:403280003CDA2D225B4284F8432037E021681A6811F0800F02D0111D196007E011F0400F02F10401196001D0138800E01368227E5C496F2A14BF0A2208221BE078225A4954
:4032C00084F845202268186812F0800F00F104051D6003D1550601D5038800E00368D00744BF42F0200222601BB9226822F0200222601022002084F8430001E049490A228C
:403300006568002DA56008DB206820F0040020602BB9002D7DD175460CE0002B79D07546B3FBF2F002FB1033CB5C05F8013D03460028F5D1082A0BD12368DA0708D523690E
:4033400062689A42DEBF302305F8013C05F1FF35C5EB0E0323612EE008681A6810F0800F496903D0101D1860136808E010F0400F02F104001860136801D0198000E01960F6
:4033800000232361754616E01A68111D1960156800216268284600F049F808B1401B6060636804E004F1420584F8422001232361002384F84330CDF800803B4603AA214654
:4033C0003046FFF797FE013002D14FF0FF3026E023692A4639463046C0470130F5D023689B0710D5002504F1190907E001234A4639463046C0470130E7D00135E368039A7B
:403400009B1A9D42F2DBE068039B9842B8BF184605E00B7804F1420584F842308AE705B0BDE8F083F53F00000640000010B5C9B202449042034605D01C7801308C42F8D17A
:40344000184610BD002010BD884210B501EB020301D8421E0BE09842FBD28118D21AD34204D013F8014D01F8014DF8E710BD994204D011F8014B02F8014FF8E710BDF8B588
:40348000074615460E4621B91146BDE8F840FFF799BB1AB9FFF74AFB2846F8BD00F015F885420ED929463846FFF78CFB044650B131462A46FFF726FB31463846FFF736FB0D
:4034C00001E03046F8BD2046F8BD51F8040C0028BEBF091851F8043CC0180438704700000000000048656C6C6F20776F726C640A0000000053697A65206F662074686520DB
:403500006D73672066726F6D207461736B20686D69203A2025640D0A000000005265636569766564204D6573736167653A0D0A0053697A653A2025640D0A000044726177A5
:40354000657220436F6F7264696E617465732066726F6D20484D49205441534B3A2025642C2025642C2025642C2025640D0A00005265636569766564204A534F4E3A200060
:403580005374617274696E6720746F2070726F6365737320746F6B656E730D0A00000000466F756E64206B65793A2025730D0A004661696C656420746F20676574207661C5
:4035C0006C756520746F6B656E0D0A00630000004D656D6F727920616C6C6F636174696F6E20666F7220636F6C6F72206661696C6564210D0A000000436F6C6F72207661B2
:403600006C75653A2025730D0A00000064000000466F756E6420617272617920776974682073697A653A2025640D0A0041727261792076616C75655B25645D3A2025640D7E
:403640000A00000055415254207374617274656400000000203A20000FB103053C3CB203053C3CB306053C3C053C3CB40103C003280804C101C0C2020D00C3028D2AC4020A
:403680008DEEC5011A3601C0E0100422070A2E30252A28262E3A00010313E10F16060D2D26232727252D3B000104133A0105290000000000003E5B4F5B3E3E6B4F6B3E1CEE
:4036C0003E7C3E1C183C7E3C181C577D571C1C5E7F5E1C00183C1800FFE7C3E7FF0018241800FFE7DBE7FF30483A060E2629792926407F050507407F05253F5A3CE73C5ADC
:403700007F3E1C1C08081C1C3E7F14227F22145F5F005F5F06097F017F006689956A606060606094A2FFA29408047E040810207E201008082A1C08081C2A08081E10101063
:40374000100C1E0C1E0C30383E3830060E3E0E06000000000000005F00000007000700147F147F14242A7F2A12231308646236495620500008070300001C22410000412278
:403780001C002A1C7F1C2A08083E080800807030000808080808000060600020100804023E5149453E00427F400072494949462141494D331814127F1027454545393C4AA2
:4037C00049493141211109073649494936464949291E0000140000004034000000081422411414141414004122140802015909063E415D594E7C1211127C7F494949363E4A
:40380000414141227F4141413E7F494949417F090909013E414151737F0808087F00417F41002040413F017F081422417F404040407F021C027F7F0408107F3E4141413E7D
:403840007F090909063E4151215E7F09192946264949493203017F01033F4040403F1F2040201F3F4038403F631408146303047804036159494D43007F41414102040810EE
:4038800020004141417F04020102044040404040000307080020545478407F284444383844444428384444287F385454541800087E090218A4A49C787F0804047800447DB4
:4038C00040002040403D007F1028440000417F40007C047804787C080404783844444438FC1824241818242418FC7C08040408485454542404043F44243C4040207C1C20D5
:4039000040201C3C4030403C44281028444C9090907C4464544C4400083641000000770000004136080002010204023C2623263C1EA1A161123A4040207A385454555921BA
:40394000555579412254547842215554784020545579400C1E5272123955555559395454545939555454580000457C410002457D420001457C407D1211127DF0282528F020
:403980007C545545002054547C547C0A097F4932494949323A4444443A324A4848303A4141217A3A42402078009DA0A07D3D4242423D3D4040403D3C24FF2424487E49437B
:4039C000662B2FFC2F2BFF0929F620C0887E090320545479410000447D413048484A32384040227A007A0A0A727D0D19317D2629292F28262929292630484D402038080830
:403A0000080808080808382F10C8ACBA2F102834FA00007B000008142A142222142A14085500550055AA55AA55AAFF55FF55FF000000FF00101010FF00141414FF001010D2
:403A4000FF00FF1010F010F0141414FC001414F700FF0000FF00FF1414F404FC141417101F10101F101F1414141F00101010F0000000001F101010101F10101010F01000B3
:403A80000000FF101010101010101010FF10000000FF140000FF00FF00001F10170000FC04F414141710171414F404F40000FF00F714141414141414F700F71414141714CC
:403AC00010101F101F141414F4141010F010F000001F101F0000001F14000000FC140000F010F01010FF10FF141414FF141010101F00000000F010FFFFFFFFFFF0F0F0F0FC
:403B0000F0FFFFFF0000000000FFFF0F0F0F0F0F3844443844FC4A4A4A347E02020606027E027E0263554941633844443C04407E201E2006027E020299A5E7A5991C2A4938
:403B40002A1C4C7201724C304A4D4D303048784830BC625A463D3E494949007E0101017E2A2A2A2A2A44445F444440514A444040444A51400000FF0103E080FF0000080852
:403B80006B6B083612362436060F090F06000018180000001010003040FF0101001F01011E00191D1712003C3C3C3C000000000054465400427566666572206F7665726643
:403BC0006C6F77004572726F723A204D656D6F727920616C6C6F636174696F6E206661696C656420666F722072696E67206275666665720D0A000000004F00400C000051F7
:403C000000401000205100401000405100403000F0510040100000000140800800090140000700140140800400190140000300400140000A004C01400002005001402000C6
:403C4000605200405004004806008008014058040048800080180140D80400488000000001000000683C00000000000001000000020000000100000000000000FFFFFFFFA1
:403C80000000000000000000000000000000000000000000A086010001000000000000001000000000000000000000000100000001000000010000000100000001000000C7
:403CC00001000000800000000100000010000000080000000100000002000000000000000100000001000000100000000800000021010000490100000D0200004D01000044
:403D0000852800008528000085280000852800000000000000000000000000000100000002000000616C726D5F35306D7300000065765F656F73000065765F73656E644DCA
:403D4000736700006572696B615F72657300000074736B5F696E69740000000074736B5F6261636B67726F756E64000074736B5F6A736F6E0000000074736B5F686D690024
:403D8000FF00010102020202030303030303030304040404040404040404040404040404050505050505050505050505050505050505050505050505050505050505050502
:403DC0000606060606060606060606060606060606060606060606060606060606060606060606060606060606060606060606060606060606060606060606060606060643
:403E000007070707070707070707070707070707070707070707070707070707070707070707070707070707070707070707070707070707070707070707070707070707C2
:403E40000707070707070707070707070707070707070707070707070707070707070707070707070707070707070707070707070707070707070707070707070707070782
:403E800043000020202020202020202028282828282020202020202020202020202020202020208810101010101010101010101010101004040404040404040404101010C7
:403EC00010101010414141414141010101010101010101010101010101010101010110101010101042424242424202020202020202020202020202020202020202021010B4
:403F00001010200000000000000000000000000000000000000000000000000000000000000000000000000000000000000000000000000000000000000000000000000041
:403F40000000000000000000000000000000000000000000000000000000000000000000000000000000000000000000000000000000000000000000000000000000000041
:403F80000000000000000000000000000000000000000000000000000000000000000000000000000000000000000000000000000000000000000000000000000000000001
:403FC000000000000000000000000000000000000000000000000000000000000000000000000000232D302B2000686C4C0065666745464700303132333435363738394184
:40400000424344454600303132333435363738396162636465660000F8B500BFF8BC08BC9E4670474D0000000D170000F8B500BFF8BC08BC9E4670472900000050400000A2
:40404000C880FF1FB0010000984C0000000000000000000010CFFF1F0000E02EC05D00001800000000366E01243D000000000000FFFFFFFFFFFFFFFFFFFFFFFFFFFFFFFF0F
:40408000FFFFFFFFFFFFFFFFFFFFFFFFFFFFFFFFFFFFFFFFFFFFFFFF010000000200000003000000FFFFFFFF0000000000000000040000000300000001000000010000000D
:4040C0000100000001000000FFFFFFFFFFFFFFFFFFFFFFFFFFFFFFFFFFFFFFFFFFFFFFFFFFFFFFFFFFFFFFFFFFFFFFFFFFFFFFFFFFFFFFFFFFFFFFFFFFFFFFFFFFFFFFFFF6
:40410000FFFFFFFFFFFFFFFFFFFFFFFFFFFFFFFFFFFFFFFFFFFFFFFFFFFFFFFFFFFFFFFFFFFFFFFFFFFFFFFFFFFFFFFFFFFFFFFFFFFFFFFFFFFFFFFFFFFFFFFFFFFFFFFFBF
:40414000FFFFFFFFFFFFFFFFFFFFFFFFFFFFFFFFFFFFFFFFFFFFFFFFFFFFFFFF03000000030000000300000003000000303D0000383D0000443D0000503D00005C3D0000C6
:404180006C3D0000783D000000CFFF1F00000000A0ACFF1FD8CCFF1F00000000843F0000A43F0000C43F000000000000000000000000000000000000803E00000000000021
:4041C00000000000000000000000000000000000000000000000000000000000000000000000000000000000000000000000000000000000000000001082FF1F823E00004F
:40420000000000000000000000000000000000000000000000000000000000000000000000000000000000000000000000000000000000000000000000000000000000007E
:40424000000000000000000000000000000000000000000000000000000000000000000000000000000000000000000000000000000000000000000000000000000000003E
:4042800000000000000000000000000000000000000000000000000000000000000000000000000000000000000000000000000000000000000000000000000000000000FE
:4042C00000000000000000000000000000000000000000000000000000000000000000000000000000000000000000000000000000000000000000000000000000000000BE
:020000040003F7
:0200000480007A
:40000000024F004001640040036500400402014001030140010501401408014041090140590A01402C0B0140011701401818014045190140411A0140421B014002400140E5
:4000400001410140084201400443014002440140014501400146014003470140034801400C4D0140045001400151014001200A4B890F89388A728B0FB880BE40D804DF0124
:400080001A02AE0109400B151308150A173419331B0C213323042D032F14330F3510376039803B083F1059045C105F010008018109020A29102811401281180419011A2040
:4000C00020282154228423102620271129402A052C402F42302832803719388039293F204004414449444A404B02510A52146208682869417040720189208A408E1092103C
:40010000938095419609970299C09B089D259E909F11A310A428A508A680A701C00DC20FC40FCA9BCCEECE2FD00ED208D802008D0A800C420D0E0E081002120D14401515A4
:40014000170A18621A141C8D1D031F1420112222248D288D2C0D2D042E802F19300F310F34803670371039023A823E103F405409580459045B045F018014841086AC8708DD
:4001800088108A408B13930C952C9603970399319B069C0C9E71A009A131A2D0A30EA4DCA622AA20B21FB330B50FB6E0B908BA80BB20BF04C002C704C9FFCA07CBFFCC4037
:4001C000CD20CEF0CF05D008D440D804D904DA04DB04DC11DD01DF01E040E1A8E240E32001A10684071009080A690E121028114012801510170919C01A441E121F40204038
:400200002240272829402F403284371938403D183F20420C472055045604571059055AA0630266186702C07BC2AFC47FCA88CCEACE68D020D60FD878E601140118023201F5
:4002400034023E144026410445E0460B47CE483649FF4AFF4BFF4EF04F44500C58045A045D015F0166C06A406B0200480820090A0A010E100F0810021326184019211A22A9
:400280001BA01E081F08200121202206282029812A02300231C4321134023602380839803B104001410842044440471049644D014F205004568057065801608261207801A1
:4002C000790280808A208B40918092109310984099809B109E80A010A2A0A310A608A703C005C26FC40FCA0BCC0FCE0ED0AED22CD601D80D00030180053C062307C2083382
:4003000009080A0C0C020D4411FF143F1518181C1A231BE31C1F1D101E20200821C024042704280C29E72B182C012D1C2E402FE1301031C03240340F351F362C37383AA0D6
:400340003B283E0156025713580459045B045C115D105F0189058B3A93209502970D9D139F0CAD09AF36B30FB730BB08D401D904DB04DD10DF010120020103A009080A01E3
:400380000B0410A8114019651A05218923042608270129642B802D803089332036883701382039403A033B043C2059015D015E085F5068046B2270B88401850887128B01AC
:4003C0008C208D409101934095029605970499809A029C209F22A010A284A3A2A404A588A608AE04AF09B102B204C00FC207C40FCA1FCCDFCE2FD6F1EC023240CC1096809A
:4004000053085B0296809B02AF02D420D640EE401B089680A708C6107502DE049D029D028D029D02E00282409680E6801280778078808B808E809880AC80C408DC01DE045C
:40044000E202E40400030C0310031C03000300003094000040000000849A0000042100D8003800C0569A090060000000010200980A98100284130064079838028402000050
:400480008000040004FC800380007F0F80E0001308000028000011003501200000DEF0BC3BFFFFFF2200F008040000000000022804040404000000010000C00040011011E0
:4004C000C00100114001400100000000000000000000000000000000000000007E00000800100000281012000100000201000001140022010000010840000004000001043A
:400500007E00000002100C003008011040010E06080000000000005526030500010E000C11FFFFFF62A0F0410C00000018000400040404040111000100000000000040020D
:40054000001030100010101200000000000000000000000000000000800040BCBC00B40000000000000B0B00000000000018180008000000000000000000000000000000BF
:40058000000000000000000000000000000000000000000000000000000000000000000000000000000000000000000000000000000000000000000000000000000000003B
:4005C00000000000000000000000000000000000000000000000000000000000000000000000000000000000000000000000000000000000000000000000000000000000FB
:4006000000000000000000000000000000000000000000000000000000000000000000000000000000000000000000000000000000000000000000000000000000000000BA
:40064000000000000000000000000000000000000000000000000000000000000000000000000000000000000000000000000000000000000000000000000000000000007A
:0200000490006A
:0400000000004005B7
:0200000490105A
:04000000BC90ACAF55
:0200000490303A
:0200000073D9B2
:0200000490402A
:4000000000000000000000000000000000000000000000000000000000000000000000000000000000000000000000000000000000000000000000000000000000000000C0
:400040000000000000000000000000000000000000000000000000000000000000000000000000000000000000000000000000000000000000000000000000000000000080
:400080000000000000000000000000000000000000000000000000000000000000000000000000000000000000000000000000000000000000000000000000000000000040
:4000C0000000000000000000000000000000000000000000000000000000000000000000000000000000000000000000000000000000000000000000000000000000000000
:0200000490501A
:0C00000000012E16106900012E2F844212
:00000001FF